:020000021000EC
:10F000000C9446F80C9472F80C9472F80C9472F804
:10F010000C9472F80C9472F80C9472F80C9472F8C8
:10F020000C9472F80C9472F80C9472F80C9472F8B8
:10F030000C9472F80C9472F80C9472F80C9472F8A8
:10F040000C9472F80C9472F80C9472F80C9472F898
:10F050000C9472F80C9472F80C9472F80C9472F888
:10F060000C9472F80C9472F80C9472F80C9472F878
:10F070000C9472F80C9472F80C9472F80C9472F868
:10F080000C9472F80C9472F80C9472F811241FBE50
:10F09000CFEFD0E4DEBFCDBF87EF84BF0FB6F894CB
:10F0A000A895809160008861809360001092600054
:10F0B0000FBE11E0A0E0B1E0E6E5FEEF01E00BBF1E
:10F0C00002C007900D92AE30B107D9F722E0AEE052
:10F0D000B1E001C01D92AB33B207E1F70E9434F9F1
:10F0E0000C9429FF0C9400F8559A569A08955D9A4D
:10F0F00008955D9808955E9A08955E9808955E9BC0
:10F100000C947BF80C947DF85D9B0C9477F80C9430
:10F1100079F8249A259A279A2E9A159A089580EAC2
:10F1200031973197319700008A95D1F7089502D031
:10F130002C9801C02C9A8FEF98E087FD2D9A87FFBD
:10F140002D98880F1E9983952F9A2F989A95A9F735
:10F150000895FB018BBF83E080935700E895809171
:10F16000570080FDFCCF81E180935700E89508951A
:10F170000F921F928BBFFB01DA0190E80D901D905A
:10F1800081E080935700E89532969A95B9F7FB0194
:10F1900085E080935700E8958091570080FDFCCF73
:10F1A00081E180935700E8951F900F900895CF92CA
:10F1B000DF92EF92FF92CF93DF9300D0CDB7DEB70F
:10F1C000C12CD12C760140E051E06FEF70E08BE371
:10F1D00091E00E9422FFAE014F5F5F4F60E071E05F
:10F1E0008BE391E00E94D2FCABE3B1E0B701A60152
:10F1F0006BBFFA0197918D9198131CC04F5F5F4FC1
:10F200006F4F7F4F82E0AB33B80791F78FEFD81A7B
:10F21000E80AF80AC11480EFD80681E0E806F10494
:10F2200091F60F900F90DF91CF91FF90EF90DF90CC
:10F23000CF900895C701B6010E94A9F84BE351E0B1
:10F24000C701B6010E94B8F8E1CF81E191E00E94C8
:10F2500064FA811108C080E091E00E944BFB8111AB
:10F2600002C00E94D7F80895D0E0C0E00E9425F9BE
:10F27000FE0185919491019611F0FE010995FFEF31
:10F2800023E284EFF15020408040E1F700C000000D
:10F29000EDCF0F931F93E0910E01F0910F019B01B1
:10F2A000AC01225031094109510986819781A0851D
:10F2B000B1850297A109B109281739074A075B07E9
:10F2C00078F4A281B0E00E94D1FE028913892489DA
:10F2D0003589600F711F821F931F1F910F91089531
:10F2E00060E070E0CB01F9CF0F931F93CF93DF93D2
:10F2F000EC01E0910E01F0910F01198218826C81EE
:10F300007D818E819F81613071058105910581F13B
:10F310000681178120853185601771078207930761
:10F3200038F5611571058105910539F42081233087
:10F3300021F46685778580899189688779878A87AE
:10F340009B87611571058105910569F00E9449F956
:10F350006C877D878E879F8790E080E0DF91CF91DB
:10F360001F910F9108956685778580899189F0CFE7
:10F3700081E090E0F3CFA4E0B0E0E1ECF9EF0C9491
:10F38000EAFE623071058105910528F461E070E0C4
:10F3900080E090E055C0E0910E01F0910F010681F0
:10F3A000178120853185601771078207930770F7F1
:10F3B000AB01BC018081823031F1833039F79A0191
:10F3C0002F773327220F331F220F331F97E07695B5
:10F3D0006795579547959A95D1F782859385A4852A
:10F3E000B585480F591F6A1F7B1F04E010E0CE014E
:10F3F00001960E9462FE892B49F669817A818B8190
:10F400009C819F701DC09A013327220F331F452F07
:10F41000562F672F772782859385A485B585480F5A
:10F42000591F6A1F7B1F02E010E0CE0101960E9467
:10F4300062FE892B09F0AACF69817A8190E080E091
:10F440002496E4E00C9406FFB0E0A0E0EAE2FAEFD4
:10F450000C94E6FEEC016A017B0102E010E02EEF65
:10F4600031E00E9462FE892B59F5888199818535AA
:10F470009A4A41F526E330E0B701A601CE010E9489
:10F4800062FE892B59F4888199818634914431F444
:10F4900080E0CDB7DEB7E8E00C9402FF02E010E0B8
:10F4A00022E530E0B701A601CE010E9462FE892B61
:10F4B00029F4888199818634914451F381E0E9CF20
:10F4C00083E0E7CF82E0E5CFA4E2B0E0EAE6FAEF3E
:10F4D0000C94DCFE1C0110920F0110920E010E9490
:10F4E000C9FD80FDB0C040E050E0BA01CE010196F8
:10F4F0000E9424FA813009F098C000E110E02EEB60
:10F5000031E040E050E0BA01CE0101960E9462FE77
:10F51000892B31F081E090E0A496E2E10C94F8FEB2
:10F520008D81811103C086E090E0F6CF49845A8432
:10F530006B847C84B301A201CE0101960E9424FA5F
:10F54000833041F38111EFCF04E210E02DE030E091
:10F55000B301A201CE0101960E9462FE892BD1F671
:10F560002A853B8550E040E02115310541055105D4
:10F5700021F4288D398D4A8D5B8DAC81B0E00E94DD
:10F58000D1FE4B015C014A815B8170E060E0440E7A
:10F59000551E661E771EF101428653866486758667
:10F5A00029812283CD80DE80D582C4828F81988597
:10F5B000B0E0A0E00097A105B10521F48C899D89F8
:10F5C000AE89BF8934E0D694C7943A95E1F7F12C1F
:10F5D000E12C841B950BA60BB70BBC01CD01681960
:10F5E00079098A099B096C197D098E099F0930E008
:10F5F00050E040E00E94AFFEDA01C9010296A11D71
:10F60000B11DF10186839783A087B187265F3F40B4
:10F61000410951092F3F3F4E41055105B8F0873F41
:10F620009F4FA105B105B8F47ECF412C512C32017A
:10F6300087CF82E0F1018083D301C201880D991D3B
:10F64000AA1DBB1D0FC082E090E066CF873F9F4F91
:10F65000A105B10570F383E0F101808388A199A130
:10F66000AAA1BBA186879787A08BB18BC40CD51CA0
:10F67000E61CF71CC80CD91CEA1CFB1CF101C28A51
:10F68000D38AE48AF58A118230920F0120920E010A
:10F6900090E080E041CF4F925F926F927F928F9285
:10F6A0009F92BF92CF92DF92EF92FF920F931F93A0
:10F6B000CF93DF93CDB7DEB7EC970FB6F894DEBFEC
:10F6C0000FBECDBFC0900E01D0900F01C114D10468
:10F6D00009F460C1F60111829E012F5C3F4F3CA3EB
:10F6E0002BA39C017901F90180812F5F3F4F80326C
:10F6F000C9F38F3209F479011DA21EA21FA218A618
:10F70000F7018081A0E2BA2E803208F0DFC0CE017E
:10F7100081960E9474F91982009709F404C1EC964D
:10F720000FB6F894DEBF0FBECDBFDF91CF911F9112
:10F730000F91FF90EF90DF90CF90BF909F908F90B0
:10F740007F906F905F904F900895B192C4C0E30E88
:10F75000F11C81E0913208F080E01B968C93CE0181
:10F7600081960E9474F90097D1F629A13AA12F70D1
:10F770003327F5E0220F331FFA95E1F74DA55EA57B
:10F780006FA578A900E210E0CE0101960E9462FE0A
:10F79000892B19F081E090E0C2CF8981811103C0EB
:10F7A00083E090E0BCCF8C8583FD13C00BA11CA12E
:10F7B0009E012F5F3F4FD801B801655F7F4F6A17E9
:10F7C0007B0709F463C0F90141919F019D9149179D
:10F7D000B1F309A11AA10F5F1F4F11F38DA59EA5CB
:10F7E000AFA5B8A90097A105B105D1F298012F7076
:10F7F0003327232BD9F480900E0190900F010196AE
:10F80000A11DB11D8DA79EA7AFA7B8AB69A57AA50D
:10F810008BA59CA5F401611571058105910549F43D
:10F82000848195810817190708F0BACF1AA309A394
:10F830009CCF2281E22FE150FF0BAF019801E4E061
:10F8400036952795EA95E1F724233523232B71F785
:10F850000E94BBF9623071058105910508F49ACFC9
:10F86000F4014680578060847184641575058605AF
:10F87000970508F095CF69A77AA78BA79CA70E9448
:10F8800049F96DA77EA78FA798ABD0CFF8019385D4
:10F89000911149C084FF84CFE0910E01F0910F01D6
:10F8A00080818330E1F58D899E89B0E0A0E0DC01A4
:10F8B000992788274B8D5C8D70E060E0842B952B19
:10F8C000A62BB72B8DA39EA3AFA3B8A7ABA1BCA1BA
:10F8D000FD01CD010B968E179F0709F036CF20E072
:10F8E000E0E088E031E03E0FEE0DFF2DF11D90814C
:10F8F000913208F42CCF9F3209F429CF9E3209F4BB
:10F900004CC0281708F023CFFD01E20FF11D9083B2
:10F91000982F81E0820F282FE32F892FE3CF80E0FB
:10F9200090E0DC01C7CF8981882309F439CF8C8529
:10F9300084FD36CFE0910E01F0910F01808183307C
:10F9400029F58D899E89B0E0A0E0DC019927882700
:10F950004B8D5C8D70E060E0842B952BA62BB72B34
:10F96000F601868F978FA0A3B1A38D8D9E8DAF8D4D
:10F97000B8A1828F938FA48FB58F168A178A108EA5
:10F98000118E81E0818390E080E0C9CE80E090E03C
:10F99000DC01DECF85E090E0C2CE883009F0D7CE22
:10F9A0009BE0B9CFB0E0A0E0E8EDFCEF0C94DEFE08
:10F9B0004C017B015A01C0910E01D0910F01FA0157
:10F9C0001182108285E090E0209709F448C0898177
:10F9D00080FFA1C08A8D9B8DAC8DBD8D4E895F89C6
:10F9E000688D798D841B950BA60BB70BA70170E072
:10F9F00060E084179507A607B70708F47C01340177
:10FA0000412C82E0582E80C08E899F89A88DB98DA7
:10FA1000AC01BD01517066277727452B462B472B3C
:10FA200009F040C0DA80DA94AC01BD0129E0769596
:10FA30006795579547952A95D1F7D42201F5892BDB
:10FA40008A2B8B2B89F46E8D7F8D88A199A16230D2
:10FA500071058105910578F4198281E090E0CDB7B8
:10FA6000DEB7E0E10C94FAFE6AA17BA18CA19DA116
:10FA70000E94BBF9ECCF6AA37BA38CA39DA36AA1D0
:10FA80007BA18CA19DA10E9449F961157105810599
:10FA9000910511F36D0D711D811D911D6EA37FA345
:10FAA00088A799A72E893F893170C201821B930BC9
:10FAB00067018E159F0508F46C014EA15FA168A532
:10FAC00079A5C3018114910411F480E090E08601CE
:10FAD0000E9462FE892B09F0BFCF8E899F89A88D75
:10FAE000B98D8C0D9D1DA11DB11D8E8B9F8BA88F77
:10FAF000B98F6C0C7D1CEC18FD08F501808191819B
:10FB0000C80ED91ED182C082E114F10409F07CCF65
:10FB100090E080E0A4CF84E090E0A1CFFF920F932B
:10FB20001F93CF93DF93C82FD42F152F062FF72EB7
:10FB300087FF09C040E050E0BA0187E70E948EFDD0
:10FB4000823010F5CF770E9497F88C2F0E949CF896
:10FB50008F2D0E949CF8802F0E949CF8812F0E947C
:10FB60009CF88D2F0E949CF885E9C03421F087E82D
:10FB7000C83409F081E00E949CF8CAE00E949BF81A
:10FB800087FF02C0C150D1F7CDB7DEB7E5E00C94D6
:10FB900005FFA4E0B0E0EFECFDEF0C94E6FE0E9460
:10FBA00089F814E60E948FF81150E1F71AE00E94DC
:10FBB0009AF81150E1F740E050E0BA0180E40E9469
:10FBC0008EFD182F813009F049C04AEA51E060E00B
:10FBD00070E088E40E948EFD813009F04BC0CE01B8
:10FBE00001967C016E0195E0C90ED11C87010E942F
:10FBF0009BF8F80181938F01CE16DF06C1F78B8148
:10FC0000813061F58C818A3A49F590E1C92E97E2FD
:10FC1000D92E40E050E060E070E489EE0E948EFD55
:10FC2000811116C040E050E0BA018AE70E948EFDC3
:10FC3000811114C00E949BF8F70181937F010E1778
:10FC40001F07C1F7898114E086FF09C01CE007C0C7
:10FC50000E948FF8F1E0CF1AD108D9F610E0109386
:10FC600010010E949AF881E0111180E02496E8E0EA
:10FC70000C9402FF40E050E0BA0189EE0E948EFD34
:10FC800001E4823010F412E009EE80E1E82E87E210
:10FC9000F82E40E050E0BA01802F0E948EFD8111C5
:10FCA0000AC040E052E060E070E080E50E948EFD16
:10FCB0008111D4CFD4CF0E948FF8F1E0EF1AF10870
:10FCC00041F7CCCFB0E0A0E0E8E6FEEF0C94E6FE12
:10FCD0006C0179018091100183FD07C089E0440F18
:10FCE000551F661F771F8A95D1F781E50E948EFD0B
:10FCF000811108C0C0E4DCE90E949BF88F3F29F421
:10FD00002197D1F7C1E0D0E022C08E3FD9F7C2E001
:10FD1000D2E0C01BD10BCE19DF09E114F10431F0A0
:10FD20000E949BF881E0E81AF108F7CF76010C0DEC
:10FD30001D1D0E949BF8F70181937F010E171F077D
:10FD4000C1F70E949BF82197E1F7D0E0C0E00E9444
:10FD50009AF8CE01CDB7DEB7E8E00C9402FFA1E23D
:10FD60001A2EAA1BBB1BFD010DC0AA1FBB1FEE1F35
:10FD7000FF1FA217B307E407F50720F0A21BB30B80
:10FD8000E40BF50B661F771F881F991F1A9469F7FC
:10FD900060957095809590959B01AC01BD01CF0158
:10FDA00008950E9413FFA59F900DB49F900DA49FEE
:10FDB000800D911D112408952F923F924F925F92D2
:10FDC0006F927F928F929F92AF92BF92CF92DF926B
:10FDD000EF92FF920F931F93CF93DF93CDB7DEB7D0
:10FDE000CA1BDB0B0FB6F894DEBF0FBECDBF099464
:10FDF0002A88398848885F846E847D848C849B84BB
:10FE0000AA84B984C884DF80EE80FD800C811B81C8
:10FE1000AA81B981CE0FD11D0FB6F894DEBF0FBEF7
:10FE2000CDBFED010895A29FB001B39FC001A39F74
:10FE3000700D811D1124911DB29F700D811D112423
:10FE4000911D0895DC0101C06D9341505040E0F7D1
:06FE50000895F894FFCFB5
:0EFE56004649524D574152452E42494E00003A
:040000031000F000F9
:00000001FF
