:020000023000CC
:10FC000002C0EDC035C1112484B7882369F0982F54
:10FC10009A70923049F081FF02C097EF94BF282E6E
:10FC200080E000D10C94000085E08093810082E0A8
:10FC30008093C00088E18093C10080E18093C4007C
:10FC400086E08093C2008EE0EDD0279A82E020E328
:10FC50003CEF91E0309385002093840096BBB09BED
:10FC6000FECF1F9AA8954091C00047FD02C0815069
:10FC700089F7CCD0813461F4C9D0C82FD9D0C2382B
:10FC800079F1C13811F488E001C083E0B8D0A4C094
:10FC9000823411F484E103C0853419F485E0D0D0B6
:10FCA0009BC0853579F4B2D0082FB0D0182F87FFCC
:10FCB00003C08BB7816002C08BB78E7F8BBF000FF4
:10FCC000111F89C0863581F4A1D08D3459F49ED09E
:10FCD000CBB79CD0C170880FC82BCBBF81E0B0D010
:10FCE00080E0D4CF83E0FBCF843609F046C08ED0CD
:10FCF000C82FD0E0DC2FCC2789D0C82B87D0B82ED6
:10FD00007E01C12C32E0D32E81D0F60181936F01A8
:10FD1000F1E0EF1AF108C1F78BD085E4B81211C0F9
:10FD20006E01EEEFDE1A7801C0E0D2E0CC16DD06FF
:10FD300009F452C06991C70118D1FFEFEF1AFF0A09
:10FD4000F5CF40E050E063E0C80149D07801C12C14
:10FD500092E0D92EF601419151916F0161E0C70106
:10FD60003ED02297F2E0EF0EF11C209799F740E089
:10FD700050E065E0C80133D02FC08437F9F446D095
:10FD8000C82FD0E0DC2FCC2741D0C82B3FD0D82EB5
:10FD90004FD0780185E4D8120AC0C701DED02FD039
:10FDA0002197EFEFEE1AFE0A2097B9F715C0F70179
:10FDB00087917F0124D02197D1F70EC0853739F480
:10FDC00037D08EE11CD088E91AD081E05FCF813531
:10FDD00011F488E027D02CD080E111D04ACFFC016B
:10FDE0000A0167BFE895112407B600FCFDCF6670D5
:10FDF00029F0452B19F481E187BFE895089590918A
:10FE0000C00095FFFCCF8093C60008958091C0008C
:10FE100087FFFCCF8091C00084FD01C0A895809130
:10FE2000C6000895E0E6F0E098E1908380830895AD
:10FE3000EDDF803219F088E0F5DFFFCF84E1DFCF1E
:10FE4000CF93C82FE3DFC150E9F7CF91F1CFCF9225
:10FE5000DF92EF92FF92DC01CB01642F6D01EE2463
:10FE6000FF24CBBEA901FF90EF90DF90CF90B7CFDA
:10FE70002F923F924F925F926F927F928F929F92BA
:10FE8000AF92BF92CF92DF92EF92FF920F931F93A8
:10FE9000CF93DF9300D0CDB7DEB71801E9826B01B5
:10FEA0007C0100E010E029013A01461A570A680A6D
:10FEB000790A02151305A9F120E030E043E0C701FB
:10FEC000B601C5DF4601570180E890E09B838A8335
:10FED000D301C201880D991DAA1DBB1DABBFFC013A
:10FEE0002791369141E0C501B401B1DF8A819B8140
:10FEF00001979B838A8392E0890E911CA11CB11CFF
:10FF00008A819B81892B21F720E030E045E0C70101
:10FF1000B6019DDF9FEFD91AE90AF90A0F5F1F4F5B
:10FF2000C8CF8981882319F088E07CDFFFCF0F904C
:10FF30000F900F90DF91CF911F910F91FF90EF9055
:10FF4000DF90CF90BF90AF909F908F907F906F90F9
:10FF50005F904F903F902F900895F999FECF92BDFA
:10FF600081BDF89A992780B50895262FF999FECF7B
:10FF70001FBA92BD81BD20BD0FB6F894FA9AF99AC6
:06FF80000FBE019608957A
:02FFFE000008F9
:040000033000FC00CD
:00000001FF
