:107C000002C003C116C1112484B7882361F0982FE4
:107C10009A70923041F081FF02C097EF94BF282EF6
:107C200080E0DED0EDC185E08093810082E080932A
:107C3000C00088E18093C10086E08093C20080E1AB
:107C40008093C4008EE0CCD0259A86E020E33CEF00
:107C500091E0309385002093840096BBB09BFECFCB
:107C60001D9AA8954091C00047FD02C0815089F738
:107C700023E0D22ECC24C39435E0B32E41E1A42ED0
:107C8000A3D0813479F4A0D0182FB0D0123811F4D9
:107C900080E004C088E0113809F083E08ED080E1F4
:107CA0008CD0EECF823419F484E1A8D0F8CF85349B
:107CB00011F485E0FACF853541F486D0C82F84D001
:107CC000D82FCC0FDD1F92D0EACF863519F484E08F
:107CD00095D0DECF843609F045C076D075D0182F08
:107CE00073D0082F812C9924939474018FEFE81A94
:107CF000F80A6AD0F401808347011E11F6CF76D0CE
:107D0000053491F4E12EF12C10E000E0F801F39538
:107D10000E151F0509F4C3CF6081C8018C0F9D1F8C
:107D2000D9D00F5F1F4FF2CFFE01D7BEE89507B63F
:107D300000FCFDCFFE01A0E0B1E0CD0102962D9147
:107D40003C910901C7BEE89511243296DC01181355
:107D5000F4CFFE01B7BEE89507B600FCFDCFA7BE85
:107D6000E8959DCF8437D1F42FD02ED0182F2CD06A
:107D7000082F3CD07E01053451F4C701A3D01DD09B
:107D80001150FFEFEF1AFF0A1111F7CF88CFF7015B
:107D900085917F0112D01150D1F781CF853739F409
:107DA00025D08EE10AD085E908D08FE077CF8135E4
:107DB00009F089CF88E014D086CF9091C00095FF5C
:107DC000FCCF8093C60008958091C00087FFFCCF50
:107DD0008091C00084FD01C0A8958091C6000895DF
:107DE000E0E6F0E098E1908380830895EDDF803253
:107DF00019F088E0F5DFFFCF84E1DFCFCF93C82F04
:107E0000E3DFC150E9F7CF91F1CFFC010A0167BF71
:107E1000E895112407B600FCFDCF667029F0452BCC
:107E200019F481E187BFE8950895CB01642FA9017A
:107E3000ECCF8F929F92AF92BF92CF92DF92EF9250
:107E40000F931F93CF93DF93EB016901912C812C4A
:107E50008016910629F4EE2049F188E0C1DFFFCFBA
:107E600050E040E063E0CE01D0DFB12CA12CF50161
:107E7000EC0DFD1D4591549161E0C5018C0F9D1FD6
:107E8000C4DF82E0A80EB11C80E8A816B10479F71F
:107E900050E040E065E0CE01B8DF8FEF881A980A25
:107EA000C058DF4F80E8C80ED11CD2CFDF91CF91F0
:107EB0001F910F91EF90DF90CF90BF90AF909F9068
:107EC0008F900895F999FECF92BD81BDF89A9927B8
:107ED00080B50895262FF999FECF1FBA92BD81BDB6
:107EE00020BD0FB6F894FA9AF99A0FBE019608953C
:027FFE00000879
:0400000300007C007D
:00000001FF
